:100000006FC57EC57DC57CC57BC59AC579C578C5DC
:1000100077C576C5DFC574C573C572C571C552494C
:100020004646A20A000057415645666D74201000EE
:10003000000001000100401F0000401F00000100FF
:100040000800646174617E0A0000C3C2959568521D
:100050007F9595C2AC95525169959596AB6968AC00
:100060005100517F523B67527E9650256895ACC235
:10007000ADACC27F3B51C3AB6967697FD8C3963AC9
:100080000F50ADAC7E69527E687FAC510E5196DA4E
:10009000D97EC295696752527FC3FEAC69AB695184
:1000A000687F7E967F95C394697E68240E255151A2
:1000B0005168686868ACACACC3AD7EAD7F5251ACE2
:1000C000C3AB69507FAC7E523A52505296AB523A13
:1000D000AD7F3C80946968687F95ACC27F7F675232
:1000E000ABDAC1966967697EADD9C27F953C6796E8
:1000F0003A3C50529650527D69697DAD7E7F7E7F3D
:10010000AC95C2DA6769687F955151687EDAD896F6
:10011000526895689595515168686951683B52805D
:100120009496957F9667695169ACC2ACAC96807E17
:100130003C699596AC7E80C1C33A000F256969671A
:10014000967E527FACAC69679695C2D9D9AD699657
:100150009695513B687F7F956969ADC3AD7E693BDC
:100160007F523B3B3B7F7E95ADC26895AD67525059
:10017000697FC2D9AD7F7F525080AC7F6995AC95C5
:10018000683C95953B0F235250807E966967C3C1AA
:1001900080ACD9D9C36869ACADAB963B527FABC3D9
:1001A000683C518095697E9568ACD9956851253B2E
:1001B0007FC3D8C3C29580516980ACD9D980513CE6
:1001C000517FC3AC6951687F695069513B525025DA
:1001D0005069676951688095C3AC7FC3AD51696749
:1001E000C3D87E7F527FADDAD95124688094AD5157
:1001F00095C25124517F7F67ADD89695C2965052D3
:1002000067ADC27E809496963B68DA9480AC3B687A
:10021000C27F3B003B699469506967523A253B9520
:10022000C2ADABF0D97E3B7E957F965152C2C2C221
:10023000950E0F7D96AB803A699568516851687E3E
:10024000ACD97F7E95686995967D967D96C196809E
:10025000675294ADACC27F69676995953C0D0023E8
:10026000527F95C2686895C3C195ACC2ACAC807E24
:10027000AC95ACAC696896AD7E697F526880686960
:100280005080AC7F687E3B526851C2DA96957FAC55
:10029000513CC2AD95AC950E247F7EADAB806769B5
:1002A000957F0F7E6950697E7E527E965096ACACEB
:1002B000AC7EAC96FDDA687F7FD9AC3B526796ADD9
:1002C000AB965151AD94967F3B957E243B3C50526A
:1002D000507FC2D9AD9496685268697D96C2AC6869
:1002E0005150697FC2AC68517F94693A3C683C3B8D
:1002F0007F6867957E517FAC95C2ACACABC395511E
:10030000ACEF80515267ADD8C394253C95AD685190
:100310005151959568523A527E96ABDAC3D88050C7
:100320008050527D96AB7F675224687F96957E8081
:10033000AB963B51AC5125513B3B687E686896AC0F
:10034000C27FACD9C2C2C2685195D9EFC252519690
:1003500094967E523A516995966852AC96959668F5
:10036000685168C2C2ACC37F7F513C9596C295511B
:100370003B7F697EC3957E7F68696752687F7F7E19
:10038000526867695168807F9695ACC37F9695697E
:100390007F7F95AD68678094AD7E683B517F677EB7
:1003A0009568687F7F7F3A3C3B7EC2C2C2ADC2ADDA
:1003B00068693A52ACD9C3AC806780519595687F23
:1003C000677FD8C3502550683B3B697F9695696924
:1003D0007F96ACACADC1AD7F6896C1AD80503C9509
:1003E000C296943C0E687F7E803B51967E69685130
:1003F000527DAD959595AD9695AC966796C19668EC
:1004000067966796D995AC9569677F6752513B3B74
:10041000247E805069C2DA7D697F7E7F95C2C2C228
:100420007F696796D9683C3A7FACC2AC24005168BA
:100430009596508069517F7E24516895C394C3ABD3
:100440007F7E5267C2C2AC9480685180ABAD3A697E
:100450007E3C7D6967806994696769517F68245132
:10046000ACD9957F6995F0ADAB806796948067961F
:10047000C1AD6869687E8067807E697F523B695143
:10048000516895C2C27F95AC957F966880D9ADAB17
:10049000953C24526895AC967E7FACAC680E513C7E
:1004A0003B6967683C679650529695AC95ABC2D94C
:1004B0009551ACDAD980243B96EEC367253A8095F6
:1004C00080695069AB807D523B7F7E96D8C37DADFD
:1004D000947F7E7F95959595957F7E685168C2C380
:1004E00068689580516851513B252451683B51689B
:1004F000C2C2AC95957E80AC95AC809496AB963B91
:100500005195AD9551527D3C51C3AB695096ADAB01
:100510007F50522468D9EFDAC27F68513BACDAD9F8
:10052000C33A3C513B95DA94697E6969513C7E95AA
:100530007E51513B515151687FABAD94AD957FEFEA
:10054000AC68807EFEC2510F3BADC27F7F695168AF
:100550007EAC8050807D69687F7E5267ADC1ADAB57
:10056000AD6768963A69C1DAD9AD68527F7E7E6818
:1005700096AD7D6994690E243C3A2551AC966796F8
:10058000957F80ACC3ACACD9AC693A69C180503CB2
:1005900068C2D9AC7F5169677F7F3B3B697E3C3C39
:1005A00050697D6995D99568AC7F6895AD7E96ACAC
:1005B000AC95956824689568517FAC957F67527DAE
:1005C000523A3C3B5269689694ADABC3947FACC23F
:1005D000C2D9807D9696C2955195C39496955151F6
:1005E00068517F7F527FDA955268240F687F7E8042
:1005F000946968802451EFD9AD80513C68967F950D
:100600007F7F7F687E3C51955169503C7F807D8023
:100610006780C1DA7F68ADACC2697DC3ACD9AC2557
:100620006796C2AD695269ADC36995D95250696781
:100630005251513B3C67F0DA503C94AD7E0F50DA9A
:10064000EFC26851686852959551516994DAAC3B94
:10065000513B0F0E51697E967F68965080ACAD80FD
:10066000ACF0DA95ADD9AD807F6896AC96680F5145
:10067000AD957FC26851686950252369947FEFEF7B
:10068000809496AC68526868C2DA9480517E9580F6
:100690007D6968967F69527F80253A3C3A3C948018
:1006A000697F6969D9AD95DAABADAB69949695ADC3
:1006B00095686896969551253A3C50AD9551699547
:1006C0007F67525025517FDAABADADAD7E0F00ADE7
:1006D000FFEF957E955168DAEE96503C3B7F51686E
:1006E0006868683C3C7E696895C29595C2ADAB96DA
:1006F00067C3C2685195EF95243B68D9D97F5225CD
:1007000069807E7F50697F3B3C3A69675250ADEF0C
:100710009651693C68AD7FADD8AD7E96683C243C6F
:10072000D9DA7F7E95ACD97F24527D5251516868C9
:1007300068967F687E95C3ADABADABAD677FC2D920
:10074000956867967D69953B247F959595513B9675
:10075000AB693A2525677FABC3AB967E6967526864
:100760007EACC2957FAC68517F94967E96AB7F7EBF
:1007700069686900255069507F95687F94AD95AD93
:10078000DAAC95AD95ADADABDAAB526895805195CD
:10079000513B7F687F965151ACAC6752243B246833
:1007A000ADACDAF0C27E243BACEFAC685151527F65
:1007B000DAEE7F687F677F513B512352697F69681A
:1007C00068253B809496517F96EEDAABC3AC519589
:1007D000AC7F6895C2AC7F68517E7F2594AC687E03
:1007E0007F697F503C67527E9580ADD99567693AA5
:1007F0007FC2C2D9AC68967F51ADAC517F7F7E95E8
:10080000670F0D527F6852505267803A3C6880C330
:10081000EEDAD8DA803B80AD7F695180C2C27F5169
:100820003B6895C3946950525069685251697FADD5
:10083000EFDAAC7E689696523A7FABF0D896948009
:100840003B689568527D96AB9694AD680F0E0F0E7F
:100850005152697D9694AD7E95ADABADAC7E6994F9
:1008600096AC7F3C517F94AD7D52513C3C6896697B
:100870006895AC687E6824515294DAD9AC9595504D
:100880003C95DAC2C2683B513B95EFAC51959580DF
:10089000683B687F525151686868689695C2C2ACDF
:1008A000805168DAD88094ADABAD67693B51F0D91F
:1008B000AC7F517F949569232551513B68683B6813
:1008C0007E80ADACAD9569689695C3C29696676912
:1008D000503C7F965096C2ACC2960E253A527D523D
:1008E000507F6769682451ACDAC1C3EFD99650963E
:1008F00095ACC36769ACD9C2C268246994AD9469E8
:100900002550526868513B5195D9C280949694966F
:100910005168687F967E7F7F7E687E51957E68965F
:10092000687F956868243B523A25517F7F6869EF5C
:10093000D97FACADD8F067699595C2D9510EADD8C5
:1009400080955125687E967D5250C2FF943C3C7E36
:100950005252ABAD7E95957F682480C2DAAC527D51
:10096000250F7E9694969552697E80955225245146
:100970003B7F7F7F68686868DAC2C2AC95953B7E32
:10098000AC7FC1DA7E51527DADC196233CAB9694CB
:10099000807E7F513B3B687E697FAC9568C3C17F99
:1009A00094520052EEF0D896233C687FAB7F3B67B1
:1009B000697EF07E0F3A3C2451687FC3AB693B806F
:1009C000AB969480C2FFC17F6769ADD896513B5208
:1009D0007DC3AD246895957F7E5152685151687FE3
:1009E000AC9568C3AC95C27F69676994809596673A
:1009F000697E7F96ABAD806780AB6924517E696765
:100A0000695169686995695295AD96D9DAC2956858
:100A10003B517F96957F697EADC1805025233B6811
:100A2000AC7F3B7FC295515224255096C2C2D9C299
:100A3000C3690F3C7F95C37E517E6895D9C3673CDF
:100A40005052AB96517E807D807D696868513B68CD
:100A50007FD9C2AC7FABC37D526895C395957F7F2C
:100A6000C2EF7E3B24689595969480503C687E52F8
:100A700051515294C3ADD9C252677F5052AB96AB1D
:100A80009667805052C29568967E7FC2AC3B247EAA
:100A900069683B5180689568517FC2D9ACACC2ACE3
:100AA000685294ADAC955169ABAD7E7F3B3B68C25B
:100AB000C3AC80699452673C245196D8DA9580ACD7
:100AC000AD955224699596AC0000000038000000F6
:100AD0000000370002020202020201020408102094
:100AE00011241FBECFE5D2E0DEBFCDBF20E0A0E6DF
:100AF000B0E001C01D92AB36B207E1F79AD0DBC07F
:100B00007FCA90E0FC01E652F54F24918C52954F3C
:100B1000FC018491882399F090E0880F991FFC01D3
:100B2000E253F54FA591B491FC01E853F54F85913F
:100B300094918FB7F894EC91E22BEC938FBF0895CA
:100B40001F920F920FB60F9211242F933F938F9302
:100B50009F93AF93BF938091670090916800A0919D
:100B60006900B0916A003091660026E0230F2D37AE
:100B700068F129E8230F0396A11DB11D209366009B
:100B80008093670090936800A0936900B0936A0017
:100B90008091620090916300A0916400B091650023
:100BA0000196A11DB11D8093620090936300A093F4
:100BB0006400B0936500BF91AF919F918F913F9179
:100BC0002F910F900FBE0F901F9018950296A11DA8
:100BD000B11DD4CF1F920F920FB60F9211242F93F5
:100BE0008F939F93EF93FF93E0916000F0916100EA
:100BF000CF0101969093610080936000E25EFF4F09
:100C0000E491EEBDE095EBBD8091600090916100B4
:100C10008A3A9A4021F41092610010926000FF918C
:100C2000EF919F918F912F910F900FBE0F901F907A
:100C3000189581B781BF78948AB582608ABD8AB5DC
:100C400081608ABD83B7887F836083BF789489B7CA
:100C5000826089BF80B7807F80BF80B7806880BF97
:100C600080B7806480BF8CB580648CBD8FEF8DBDF4
:100C700080B7876080BF86B18877866886B9379AE3
:100C800086E087BD19BE81E680BF80E68CBD80E826
:100C90008EBD8BBD83E08ABD8AE083BF80E189BFC2
:100CA0008CE189BD85B7877E806185BF84E029DFBF
:0A0CB00081E027DFFFCFF894FFCFAB
:00000001FF
